S012000050726F6A656B74695F312E737265633A
S11300000C9434000C9451000C9451000C94510045
S11300100C9451000C941A040C9451000C9451004B
S11300200C9451000C94F5010C9451000C94510063
S11300300C9451000C9451000C9451000C945100F8
S11300400C9451000C9451000C9451000C945100E8
S11300500C9451000C942D040C9451000C945100F8
S11300600C9451000C94510011241FBECFEFD8E022
S1130070DEBFCDBF11E0A0E0B1E0E0EAF9E002C0EC
S113008005900D92AA31B107D9F721E0AAE1B1E0B8
S113009001C01D92AA32B207E1F70E94A8040C9491
S11300A0CE040C940000CF93DF93CDB7DEB78AE281
S11300B090E02AE230E0F90120812062FC012083F3
S11300C08AE290E02AE230E0F90120812B7FFC01F2
S11300D0208387E290E0FC01108284E290E024E235
S11300E030E0F90120812260FC01208381EB90E063
S11300F021EB30E0F90120812260FC01208380E7BC
S113010090E020E730E0F90120812160FC012083A8
S113011088E690E028E630E0F90120812460FC01C3
S113012020838DE690E02DE630E0F9012081246003
S1130130FC01208384E490E024E430E0F901208190
S11301402260FC01208384E490E024E430E0F9019F
S113015020812061FC01208385E490E025E430E0E7
S1130160F90120812460FC01208387E490E028ECDD
S1130170FC01208380E890E020E830E0F901208150
S11301802368FC01208381E890E021E830E0F90154
S113019020812360FC01208388E890E02091000105
S11301A030910101FC01318320838EE790E021E04E
S11301B0FC0120838CE790E02CE730E0F9012081FA
S11301C02064FC0120838CE790E02CE730E0F90107
S11301D020812F7DFC0120838AE790E02AE730E02C
S11301E0F90120812760FC0120838AE790E02AE757
S11301F030E0F90120812860FC0120838AE790E047
S11302002AE730E0F90120812068FC01208384EC96
S113021090E027E6FC01208385EC90E0FC0110824D
S113022081EC90E021EC30E0F90120812861FC01AF
S1130230208382EC90E022EC30E0F90120812660FA
S1130240FC01208378940000DF91CF910895CF932F
S1130250DF9300D0CDB7DEB71A8219828FC029810F
S11302603A81C901880F991F820F931F880F991F24
S1130270845E9E4FFC018081882309F47AC0298121
S11302803A81C901880F991F820F931F880F991F04
S1130290835E9E4FFC0180819181892B09F04AC0C5
S11302A029813A81C901880F991F820F931F880FF2
S11302B0991F8F5D9E4FFC0180818F5F482F29819C
S11302C03A81C901880F991F820F931F880F991FC4
S11302D08F5D9E4FFC01408329813A81C901880FBB
S11302E0991F820F931F880F991F815E9E4FFC01F7
S11302F080819181892BE9F129813A81C901880F93
S1130300991F820F931F880F991F815E9E4FFC01D6
S113031080819181AC0129813A81C901880F991F9B
S1130320820F931F880F991F835E9E4FFC01518398
S113033040831FC029813A81C901880F991F820F08
S1130340931F880F991F835E9E4FFC0180819181CA
S1130350AC014150510929813A81C901880F991F83
S1130360820F931F880F991F835E9E4FFC01518358
S1130370408389819A8101969A83898389819A81AC
S113038002970CF46CCF00000F900F90DF91CF9187
S11303900895CF93DF9300D0CDB7DEB79A838983D6
S11303A018C0000080EC90E0FC018081882F90E070
S11303B080729927892BB1F326EC30E089819A81E8
S11303C0AC014F5F5F4F5A834983FC018081F9017F
S11303D0808389819A81FC018081882311F7000040
S11303E00F900F90DF91CF9108951F920F9200907C
S11303F05F000F9211242F933F934F935F936F935A
S11304007F938F939F93AF93BF93EF93FF93CF9378
S1130410DF93CDB7DEB780911A0190911B019C0147
S11304202F5F3F4F30931B0120931A018C399105A4
S113043030F00E94270110921B0110921A01000053
S1130440DF91CF91FF91EF91BF91AF919F918F91E8
S11304507F916F915F914F913F912F910F900092F7
S11304605F000F901F901895CF93DF9300D000D0BA
S113047000D0CDB7DEB789836A835C834B833E8328
S11304802D838981282F30E0C901880F991F820F9D
S1130490931F880F991F845E9E4F2A81FC0120833D
S11304A08981282F30E0C901880F991F820F931F7B
S11304B0880F991F835E9E4F2B813C81FC01318301
S11304C020838981282F30E04D815E81C901880F06
S11304D0991F820F931F880F991F815E9E4FFC0105
S11304E051834083000026960FB6F894DEBF0FBEFA
S11304F0CDBFDF91CF910895CF93DF9300D0CDB7D7
S1130500DEB71A82198222C029813A81C901880F73
S1130510991F820F931F880F991F845E9E4FFC01C1
S1130520108224E630E040E050E061E080E00E9488
S1130530340224E630E042E350E062E081E00E94CD
S1130540340289819A8101969A83898389819A8167
S11305500297D4F200000F900F90DF91CF9108958D
S1130560CF93DF93CDB7DEB78CE790E02CE730E094
S1130570F9012081207FFC0120838AE790E02AE7AB
S113058030E0F90120812064FC0120830000DF9128
S1130590CF910895CF93DF93CDB7DEB761970FB6B0
S11305A0F894DEBF0FBECDBF80910201909103018C
S11305B00E94C9011A82198249815A81CA0101968D
S11305C09A838983E0912801F09129019F01ADEC80
S11305D0BCEC0E94BF049695879596958795969551
S11305E08795880F991F9C01220F331F220F331FF9
S11305F0820F931F9F01281B390BC90120E3280F89
S1130600CE010896840F951FFC0120838091280158
S1130610909129019C01ADECBCEC0E94BF0496951D
S113062087959695879596958795909329018093BC
S113063028018091280190912901892B09F0BCCFD0
S11306409E01285F3F4F89819A81820F931FFC018D
S113065010821C821B8289819A8101979E838D83DB
S113066030C09E01285F3F4F8B819C81820F931F76
S1130670FC0180818F839E01285F3F4F8D819E8185
S1130680820F931FFC0140819E01285F3F4F8B81A5
S11306909C81820F931FFC0140839E01285F3F4F82
S11306A08D819E81820F931F2F81FC0120838B817A
S11306B09C8101969C838B838D819E8101979E836F
S11306C08D832B813C818D819E81281739074CF2C3
S11306D0CE0108960E94C901809104019091050100
S11306E00E94C901000061960FB6F894DEBF0FBEE8
S11306F0CDBFDF91CF910895CF93DF9300D0CDB7D5
S1130700DEB71A82198264C029813A81C901880F2F
S1130710991F820F931F880F991F845E9E4FFC01BF
S11307208081882309F44FC029813A81C901880F47
S1130730991F820F931F880F991F8F5D9E4FFC0195
S1130740808118160CF03FC029813A81C901880FB5
S1130750991F820F931F880F991F845E9E4FFC017F
S11307608081813019F40E94B00211C029813A813C
S1130770C901880F991F820F931F880F991F845EE8
S11307809E4FFC018081823011F40E94CA022981AB
S11307903A81C901880F991F820F931F880F991FEF
S11307A08F5D9E4FFC0180818150482F29813A81C1
S11307B0C901880F991F820F931F880F991F8F5D9E
S11307C09E4FFC01408389819A8101969A83898393
S11307D089819A8102970CF497CF00000F900F90B3
S11307E0DF91CF910895CF93DF93CDB7DEB783E543
S11307F090E023E530E0F9012081217F2C60FC01A9
S11308002083F89483E590E023E530E0F90120812A
S11308102160FC0120837894889583E590E023E5AA
S113082030E0F90120812E7FFC0120830000DF915C
S1130830CF9108951F920F9200905F000F921124A0
S1130840CF93DF93CDB7DEB70000DF91CF910F9048
S113085000925F000F901F9018951F920F920090C6
S11308605F000F9211242F933F934F935F936F93E5
S11308707F938F939F93AF93BF93EF93FF93CF9304
S1130880DF93CDB7DEB788E790E0FC0180819181EA
S11308909093290180932801809128019091290146
S11308A0C29738F482E390E0909329018093280161
S11308B00DC08091280190912901893E934030F028
S11308C088EE93E0909329018093280140912801B8
S11308D05091290127E439E0429FC001439F900DC4
S11308E0529F900D11249695879596958795969588
S11308F087959C01A5ECB0E20E94BF049295829575
S11309008F7089279F70892784589F4F9093010186
S11309108093000188E890E020910001309101016A
S1130920FC01318320830000DF91CF91FF91EF918F
S1130930BF91AF919F918F917F916F915F914F91F3
S11309403F912F910F9000925F000F901F90189588
S1130950CF93DF93CDB7DEB70E947C020E94530091
S11309600E947C0389E290E0FC018081882F90E062
S113097084709927892BA1F70E94F303F1CFA29FDA
S1130980B001B39FC001A39F700D811D1124911D5F
S1130990B29F700D811D1124911D0895F894FFCF0D
S11309A01B01060114014672657175656E63792039
S10D09B06973200020487A0D0A0044
S9030000FC
